:020000040000FA
:10000000700200106901000071010000730100001E
:100010007501000077010000790100000000000078
:100020000000000000000000000000007B01000054
:100030007D010000000000007F0100008101000040
:1000400083010000830100008301000083010000A0
:100050008301000083010000830100008301000090
:100060008301000083010000830100008301000080
:100070008301000083010000830100008301000070
:100080008301000083010000830100008301000060
:100090008301000083010000830100008301000050
:1000A0008301000083010000830100008301000040
:1000B0008301000083010000830100008301000030
:1000C00083010000830100008301000000F002F8BA
:1000D00000F03AF80AA090E8000C82448344AAF1A8
:1000E0000107DA4501D100F02FF8AFF2090EBAE8A6
:1000F0000F0013F0010F18BFFB1A43F0010318475C
:10010000E805000008060000103A24BF78C878C14E
:10011000FAD8520724BF30C830C144BF04680C600D
:10012000704700000023002400250026103A28BF55
:1001300078C1FBD8520728BF30C148BF0B60704759
:100140001FB51FBD10B510BD00F02FF81146FFF709
:10015000F7FF00F0B9F800F04DF803B4FFF7F2FF35
:1001600003BC00F055F800000948804709480047E3
:10017000FEE7FEE7FEE7FEE7FEE7FEE7FEE7FEE757
:10018000FEE7FEE704480549034A054B70470000B7
:1001900001030000CD00000070000010700200108C
:1001A00070000010704770477047754600F02CF8DB
:1001B000AE4605006946534620F00700854618B054
:1001C00020B5FFF7DFFFBDE820404FF000064FF0FD
:1001D00000074FF000084FF0000B21F00701AC467C
:1001E000ACE8C009ACE8C009ACE8C009ACE8C0099B
:1001F0008D46704710B50446AFF300802046BDE839
:100200001040FFF7AABF0000004870471000001020
:1002100001491820ABBEFEE726000200704700002F
:100220004FF470000549C8634FF00070C867400084
:10023000C867800001499C310860704700C00920F0
:10024000002100E0491C8142FCD3704700B50E48F4
:10025000007800F0F0000D490860084600880004AE
:10026000086000F089F90848007800F00F0007499D
:100270000860084600880005086000F07DF94FF42A
:100280007A70FFF7DDFF00BD080000100C000010C1
:1002900010B504460B46012C02D0022C0ED106E00C
:1002A00003F17F0007490860FFF7D0FF07E003F183
:1002B000BF0004490860FFF7C9FF00E000BF00BFAE
:1002C00010BD00000800001010B5064903C900F079
:1002D0008FF90446052322460121084600F0D2F892
:1002E000002010BD00000010000000000000000011
:1002F000000000000000000000000000FFFFFFFF02
:1003000020204B4908604B48D0F8A00100F02000A5
:1003100030B100BF4648006800F040000028F9D026
:10032000032043499C39086000204249C1F8A801D4
:100330003F490C31086001203D49943908603E482E
:100340003C4984310860AA203A498C310860552024
:1003500008600120374980310860AA2035498C3176
:10036000086055203349C1F88C0000BF31488830FF
:10037000006800F080600028F8D003202D4980310B
:100380000860AA202B49C1F88C00552029498C31DE
:10039000086000BF27488830006800F04070B0F166
:1003A000407FF7D123202349A4310860AA202149A6
:1003B000C1F8AC0055201F49AC31086001201D492F
:1003C000A0310860AA201B49AC31086055201949AA
:1003D000C1F8AC0000BF1748A830006800F4806086
:1003E0000028F8D003201349A0310860AA20114941
:1003F000C1F8AC0055200F49AC31086000BF0D4872
:10040000A830006800F44070B0F5407FF7D10B4889
:100410000849C431086000200649C1F8C8010846EF
:10042000006820F4704040F480400860704700008D
:10043000A0C10F4000C00F4063000500DE87280404
:1004400000B50E48007800F0F0000D49086008463D
:1004500000880004086000F0ADF80848007800F05B
:100460000F0007490860084600880005086000F092
:10047000A1F84FF47A70FFF7E3FE00BD080000100A
:100480000C0000102DE9F0410746884615461C4631
:10049000002617B1B8F1000F09D180203549086056
:1004A000FFF7D4FE4FF44870FFF7CAFE03E0414661
:1004B0003846FFF7EDFE052C01D0012E09D142F29E
:1004C0001070B5FBF0F030302A490860FFF7B8FF34
:1004D0000126042C01D0012E0FD142F21070B5FB81
:1004E000F0F100FB11504FF47A71B0FBF1F03030B5
:1004F00020490860FFF7A4FF0126032C01D0012E3C
:100500000ED14FF47A70B5FBF0F100FB115064216D
:10051000B0FBF1F0303017490860FFF791FF01267A
:10052000022C01D0012E0DD16420B5FBF0F100FBAF
:1005300011500A21B0FBF1F030300E490860FFF78E
:100540007FFF0126012C01D0012E0AD10A20B5FB24
:10055000F0F100FB1150303006490860FFF770FFE2
:100560000126052C04DD652002490860FFF768FFBD
:10057000BDE8F0810800001000B5FFF751FE0B4800
:1005800000680B4948634FF08060C8674010C86737
:10059000C0000749983108601920FFF751FE4FF05D
:1005A00080500349C1F89C0000BD00000C00001001
:1005B00000C0092000B5FFF733FE0B4800680B4967
:1005C00048634FF0007088674000C86780000749A3
:1005D000983108601920FFF733FE4FF0805003492F
:1005E000C1F89C0000BD00000C00001000C00920F4
:1005F0004FEA1153A3F58063D3F11E03A8BFD3F1D3
:10060000200C08DB4FF0004242EAC12252EA50526D
:1006100032FA03F0704709420BD4102BC4BF0020FC
:10062000704703F5787CBCF1FF3F05D04FF0FF30F9
:1006300070474FF00000704770B500F006F800BF3B
:100640004992248000207047F0E70EF1020E2EF050
:10065000030E5EF8046B364205D4012A43EB030512
:1006600015F5001F12D8012841EB010C1CF5001FE5
:100670000CD80ED14FEAD17C15F5001F0CEB4C0CB9
:100680000CF1020C08BF4CEBD37C04E04FF0080CDB
:1006900001E04FEAD37C0CEB4C0526FA05F606F098
:1006A0000706B6F1040C06D20EEB860CBDE87040CE
:1006B0004CF0010C6047DFE80CF0090B02024FF030
:1006C00000414FF00000A1F5002170BD1946104611
:1006D000012851EB010418BFD4F5001484BF002099
:1006E00001F0004170BD000008070000000000108C
:1006F00010000000080100001807000010000010A2
:100700006002000024010000000000000000000062
:080710000000000000000000E1
:04000005000001698D
:00000001FF
